{
  "contracts/VotingStation.sol": {
    "VotingStation": {
      "abi": [
        {
          "inputs": [
            {
              "internalType": "address",
              "name": "_nationalIdAddress",
              "type": "address"
            },
            {
              "internalType": "string[]",
              "name": "_candidates",
              "type": "string[]"
            }
          ],
          "stateMutability": "nonpayable",
          "type": "constructor"
        },
        {
          "inputs": [
            {
              "internalType": "address",
              "name": "",
              "type": "address"
            }
          ],
          "name": "hasVoted",
          "outputs": [
            {
              "internalType": "bool",
              "name": "",
              "type": "bool"
            }
          ],
          "stateMutability": "view",
          "type": "function"
        },
        {
          "inputs": [],
          "name": "nationalIdContract",
          "outputs": [
            {
              "internalType": "contract IERC721",
              "name": "",
              "type": "address"
            }
          ],
          "stateMutability": "view",
          "type": "function"
        },
        {
          "inputs": [
            {
              "internalType": "string",
              "name": "candidate",
              "type": "string"
            }
          ],
          "name": "vote",
          "outputs": [],
          "stateMutability": "nonpayable",
          "type": "function"
        },
        {
          "inputs": [
            {
              "internalType": "string",
              "name": "",
              "type": "string"
            }
          ],
          "name": "votesReceived",
          "outputs": [
            {
              "internalType": "uint256",
              "name": "",
              "type": "uint256"
            }
          ],
          "stateMutability": "view",
          "type": "function"
        },
        {
          "inputs": [],
          "name": "votingActive",
          "outputs": [
            {
              "internalType": "bool",
              "name": "",
              "type": "bool"
            }
          ],
          "stateMutability": "view",
          "type": "function"
        },
        {
          "inputs": [],
          "name": "winner",
          "outputs": [
            {
              "internalType": "string",
              "name": "",
              "type": "string"
            }
          ],
          "stateMutability": "view",
          "type": "function"
        }
      ],
      "evm": {
        "bytecode": {
          "linkReferences": {},
          "object": "6003805460ff1916600117905560a06040525f608090815260049061002490826101da565b50348015610030575f5ffd5b50604051610c0b380380610c0b83398101604081905261004f916102c4565b600580546001600160a01b0319166001600160a01b038416179055805161007c905f906020840190610084565b505050610409565b828054828255905f5260205f209081019282156100c8579160200282015b828111156100c857825182906100b890826101da565b50916020019190600101906100a2565b506100d49291506100d8565b5090565b808211156100d4575f6100eb82826100f4565b506001016100d8565b50805461010090610156565b5f825580601f1061010f575050565b601f0160209004905f5260205f209081019061012b919061012e565b50565b5b808211156100d4575f815560010161012f565b634e487b7160e01b5f52604160045260245ffd5b600181811c9082168061016a57607f821691505b60208210810361018857634e487b7160e01b5f52602260045260245ffd5b50919050565b601f8211156101d557805f5260205f20601f840160051c810160208510156101b35750805b601f840160051c820191505b818110156101d2575f81556001016101bf565b50505b505050565b81516001600160401b038111156101f3576101f3610142565b610207816102018454610156565b8461018e565b6020601f821160018114610239575f83156102225750848201515b5f19600385901b1c1916600184901b1784556101d2565b5f84815260208120601f198516915b828110156102685787850151825560209485019460019092019101610248565b508482101561028557868401515f19600387901b60f8161c191681555b50505050600190811b01905550565b604051601f8201601f191681016001600160401b03811182821017156102bc576102bc610142565b604052919050565b5f5f604083850312156102d5575f5ffd5b82516001600160a01b03811681146102eb575f5ffd5b60208401519092506001600160401b03811115610306575f5ffd5b8301601f81018513610316575f5ffd5b80516001600160401b0381111561032f5761032f610142565b8060051b61033f60208201610294565b9182526020818401810192908101908884111561035a575f5ffd5b6020850192505b838310156103fa5782516001600160401b0381111561037e575f5ffd5b8501603f81018a1361038e575f5ffd5b60208101516001600160401b038111156103aa576103aa610142565b6103bd601f8201601f1916602001610294565b8181526040838301018c10156103d1575f5ffd5b8160408401602083015e5f60208383010152808552505050602082019150602083019250610361565b80955050505050509250929050565b6107f5806104165f395ff3fe608060405234801561000f575f5ffd5b5060043610610060575f3560e01c806309eef43e14610064578063408e27271461009b5780638d4b44d9146100a8578063dfbf53ae146100e1578063eef2c890146100f6578063fc36e15b14610121575b5f5ffd5b610086610072366004610481565b60016020525f908152604090205460ff1681565b60405190151581526020015b60405180910390f35b6003546100869060ff1681565b6100d36100b63660046104c2565b805160208183018101805160028252928201919093012091525481565b604051908152602001610092565b6100e9610136565b6040516100929190610575565b600554610109906001600160a01b031681565b6040516001600160a01b039091168152602001610092565b61013461012f3660046104c2565b6101c2565b005b60048054610143906105aa565b80601f016020809104026020016040519081016040528092919081815260200182805461016f906105aa565b80156101ba5780601f10610191576101008083540402835291602001916101ba565b820191905f5260205f20905b81548152906001019060200180831161019d57829003601f168201915b505050505081565b6005546040516370a0823160e01b81523360048201525f916001600160a01b0316906370a0823190602401602060405180830381865afa158015610208573d5f5f3e3d5ffd5b505050506040513d601f19601f8201168201806040525081019061022c91906105e2565b1161027e5760405162461bcd60e51b815260206004820152601e60248201527f4d7573742068617665204e6174696f6e616c20494420746f20766f746521000060448201526064015b60405180910390fd5b335f9081526001602052604090205460ff16156102dd5760405162461bcd60e51b815260206004820152601760248201527f596f75206861766520616c726561647920766f746564210000000000000000006044820152606401610275565b60035460ff166103235760405162461bcd60e51b8152602060048201526011602482015270566f74696e672068617320656e6465642160781b6044820152606401610275565b5f805b5f548110156103ac578260405160200161034091906105f9565b604051602081830303815290604052805190602001205f82815481106103685761036861060f565b905f5260205f20016040516020016103809190610623565b60405160208183030381529060405280519060200120036103a457600191506103ac565b600101610326565b50806103ef5760405162461bcd60e51b8152602060048201526012602482015271496e76616c69642063616e6469646174652160701b6044820152606401610275565b600160028360405161040191906105f9565b90815260200160405180910390205f82825461041d9190610694565b9091555050335f90815260016020819052604091829020805460ff19169091179055516005906002906104519085906105f9565b9081526020016040518091039020541061047d576003805460ff19169055600461047b8382610704565b505b5050565b5f60208284031215610491575f5ffd5b81356001600160a01b03811681146104a7575f5ffd5b9392505050565b634e487b7160e01b5f52604160045260245ffd5b5f602082840312156104d2575f5ffd5b813567ffffffffffffffff8111156104e8575f5ffd5b8201601f810184136104f8575f5ffd5b803567ffffffffffffffff811115610512576105126104ae565b604051601f8201601f19908116603f0116810167ffffffffffffffff81118282101715610541576105416104ae565b604052818152828201602001861015610558575f5ffd5b816020840160208301375f91810160200191909152949350505050565b602081525f82518060208401528060208501604085015e5f604082850101526040601f19601f83011684010191505092915050565b600181811c908216806105be57607f821691505b6020821081036105dc57634e487b7160e01b5f52602260045260245ffd5b50919050565b5f602082840312156105f2575f5ffd5b5051919050565b5f82518060208501845e5f920191825250919050565b634e487b7160e01b5f52603260045260245ffd5b5f5f8354610630816105aa565b600182168015610647576001811461065c57610689565b60ff1983168652811515820286019350610689565b865f5260205f205f5b8381101561068157815488820152600190910190602001610665565b505081860193505b509195945050505050565b808201808211156106b357634e487b7160e01b5f52601160045260245ffd5b92915050565b601f82111561047b57805f5260205f20601f840160051c810160208510156106de5750805b601f840160051c820191505b818110156106fd575f81556001016106ea565b5050505050565b815167ffffffffffffffff81111561071e5761071e6104ae565b6107328161072c84546105aa565b846106b9565b6020601f821160018114610764575f831561074d5750848201515b5f19600385901b1c1916600184901b1784556106fd565b5f84815260208120601f198516915b828110156107935787850151825560209485019460019092019101610773565b50848210156107b057868401515f19600387901b60f8161c191681555b50505050600190811b0190555056fea2646970667358221220e9208b669c02e6dc08e4ef2b37f4951cdc3d8ac79781faa7beb8a81c4681098764736f6c634300081b0033",
          "opcodes": "PUSH1 0x3 DUP1 SLOAD PUSH1 0xFF NOT AND PUSH1 0x1 OR SWAP1 SSTORE PUSH1 0xA0 PUSH1 0x40 MSTORE PUSH0 PUSH1 0x80 SWAP1 DUP2 MSTORE PUSH1 0x4 SWAP1 PUSH2 0x24 SWAP1 DUP3 PUSH2 0x1DA JUMP JUMPDEST POP CALLVALUE DUP1 ISZERO PUSH2 0x30 JUMPI PUSH0 PUSH0 REVERT JUMPDEST POP PUSH1 0x40 MLOAD PUSH2 0xC0B CODESIZE SUB DUP1 PUSH2 0xC0B DUP4 CODECOPY DUP2 ADD PUSH1 0x40 DUP2 SWAP1 MSTORE PUSH2 0x4F SWAP2 PUSH2 0x2C4 JUMP JUMPDEST PUSH1 0x5 DUP1 SLOAD PUSH1 0x1 PUSH1 0x1 PUSH1 0xA0 SHL SUB NOT AND PUSH1 0x1 PUSH1 0x1 PUSH1 0xA0 SHL SUB DUP5 AND OR SWAP1 SSTORE DUP1 MLOAD PUSH2 0x7C SWAP1 PUSH0 SWAP1 PUSH1 0x20 DUP5 ADD SWAP1 PUSH2 0x84 JUMP JUMPDEST POP POP POP PUSH2 0x409 JUMP JUMPDEST DUP3 DUP1 SLOAD DUP3 DUP3 SSTORE SWAP1 PUSH0 MSTORE PUSH1 0x20 PUSH0 KECCAK256 SWAP1 DUP2 ADD SWAP3 DUP3 ISZERO PUSH2 0xC8 JUMPI SWAP2 PUSH1 0x20 MUL DUP3 ADD JUMPDEST DUP3 DUP2 GT ISZERO PUSH2 0xC8 JUMPI DUP3 MLOAD DUP3 SWAP1 PUSH2 0xB8 SWAP1 DUP3 PUSH2 0x1DA JUMP JUMPDEST POP SWAP2 PUSH1 0x20 ADD SWAP2 SWAP1 PUSH1 0x1 ADD SWAP1 PUSH2 0xA2 JUMP JUMPDEST POP PUSH2 0xD4 SWAP3 SWAP2 POP PUSH2 0xD8 JUMP JUMPDEST POP SWAP1 JUMP JUMPDEST DUP1 DUP3 GT ISZERO PUSH2 0xD4 JUMPI PUSH0 PUSH2 0xEB DUP3 DUP3 PUSH2 0xF4 JUMP JUMPDEST POP PUSH1 0x1 ADD PUSH2 0xD8 JUMP JUMPDEST POP DUP1 SLOAD PUSH2 0x100 SWAP1 PUSH2 0x156 JUMP JUMPDEST PUSH0 DUP3 SSTORE DUP1 PUSH1 0x1F LT PUSH2 0x10F JUMPI POP POP JUMP JUMPDEST PUSH1 0x1F ADD PUSH1 0x20 SWAP1 DIV SWAP1 PUSH0 MSTORE PUSH1 0x20 PUSH0 KECCAK256 SWAP1 DUP2 ADD SWAP1 PUSH2 0x12B SWAP2 SWAP1 PUSH2 0x12E JUMP JUMPDEST POP JUMP JUMPDEST JUMPDEST DUP1 DUP3 GT ISZERO PUSH2 0xD4 JUMPI PUSH0 DUP2 SSTORE PUSH1 0x1 ADD PUSH2 0x12F JUMP JUMPDEST PUSH4 0x4E487B71 PUSH1 0xE0 SHL PUSH0 MSTORE PUSH1 0x41 PUSH1 0x4 MSTORE PUSH1 0x24 PUSH0 REVERT JUMPDEST PUSH1 0x1 DUP2 DUP2 SHR SWAP1 DUP3 AND DUP1 PUSH2 0x16A JUMPI PUSH1 0x7F DUP3 AND SWAP2 POP JUMPDEST PUSH1 0x20 DUP3 LT DUP2 SUB PUSH2 0x188 JUMPI PUSH4 0x4E487B71 PUSH1 0xE0 SHL PUSH0 MSTORE PUSH1 0x22 PUSH1 0x4 MSTORE PUSH1 0x24 PUSH0 REVERT JUMPDEST POP SWAP2 SWAP1 POP JUMP JUMPDEST PUSH1 0x1F DUP3 GT ISZERO PUSH2 0x1D5 JUMPI DUP1 PUSH0 MSTORE PUSH1 0x20 PUSH0 KECCAK256 PUSH1 0x1F DUP5 ADD PUSH1 0x5 SHR DUP2 ADD PUSH1 0x20 DUP6 LT ISZERO PUSH2 0x1B3 JUMPI POP DUP1 JUMPDEST PUSH1 0x1F DUP5 ADD PUSH1 0x5 SHR DUP3 ADD SWAP2 POP JUMPDEST DUP2 DUP2 LT ISZERO PUSH2 0x1D2 JUMPI PUSH0 DUP2 SSTORE PUSH1 0x1 ADD PUSH2 0x1BF JUMP JUMPDEST POP POP JUMPDEST POP POP POP JUMP JUMPDEST DUP2 MLOAD PUSH1 0x1 PUSH1 0x1 PUSH1 0x40 SHL SUB DUP2 GT ISZERO PUSH2 0x1F3 JUMPI PUSH2 0x1F3 PUSH2 0x142 JUMP JUMPDEST PUSH2 0x207 DUP2 PUSH2 0x201 DUP5 SLOAD PUSH2 0x156 JUMP JUMPDEST DUP5 PUSH2 0x18E JUMP JUMPDEST PUSH1 0x20 PUSH1 0x1F DUP3 GT PUSH1 0x1 DUP2 EQ PUSH2 0x239 JUMPI PUSH0 DUP4 ISZERO PUSH2 0x222 JUMPI POP DUP5 DUP3 ADD MLOAD JUMPDEST PUSH0 NOT PUSH1 0x3 DUP6 SWAP1 SHL SHR NOT AND PUSH1 0x1 DUP5 SWAP1 SHL OR DUP5 SSTORE PUSH2 0x1D2 JUMP JUMPDEST PUSH0 DUP5 DUP2 MSTORE PUSH1 0x20 DUP2 KECCAK256 PUSH1 0x1F NOT DUP6 AND SWAP2 JUMPDEST DUP3 DUP2 LT ISZERO PUSH2 0x268 JUMPI DUP8 DUP6 ADD MLOAD DUP3 SSTORE PUSH1 0x20 SWAP5 DUP6 ADD SWAP5 PUSH1 0x1 SWAP1 SWAP3 ADD SWAP2 ADD PUSH2 0x248 JUMP JUMPDEST POP DUP5 DUP3 LT ISZERO PUSH2 0x285 JUMPI DUP7 DUP5 ADD MLOAD PUSH0 NOT PUSH1 0x3 DUP8 SWAP1 SHL PUSH1 0xF8 AND SHR NOT AND DUP2 SSTORE JUMPDEST POP POP POP POP PUSH1 0x1 SWAP1 DUP2 SHL ADD SWAP1 SSTORE POP JUMP JUMPDEST PUSH1 0x40 MLOAD PUSH1 0x1F DUP3 ADD PUSH1 0x1F NOT AND DUP2 ADD PUSH1 0x1 PUSH1 0x1 PUSH1 0x40 SHL SUB DUP2 GT DUP3 DUP3 LT OR ISZERO PUSH2 0x2BC JUMPI PUSH2 0x2BC PUSH2 0x142 JUMP JUMPDEST PUSH1 0x40 MSTORE SWAP2 SWAP1 POP JUMP JUMPDEST PUSH0 PUSH0 PUSH1 0x40 DUP4 DUP6 SUB SLT ISZERO PUSH2 0x2D5 JUMPI PUSH0 PUSH0 REVERT JUMPDEST DUP3 MLOAD PUSH1 0x1 PUSH1 0x1 PUSH1 0xA0 SHL SUB DUP2 AND DUP2 EQ PUSH2 0x2EB JUMPI PUSH0 PUSH0 REVERT JUMPDEST PUSH1 0x20 DUP5 ADD MLOAD SWAP1 SWAP3 POP PUSH1 0x1 PUSH1 0x1 PUSH1 0x40 SHL SUB DUP2 GT ISZERO PUSH2 0x306 JUMPI PUSH0 PUSH0 REVERT JUMPDEST DUP4 ADD PUSH1 0x1F DUP2 ADD DUP6 SGT PUSH2 0x316 JUMPI PUSH0 PUSH0 REVERT JUMPDEST DUP1 MLOAD PUSH1 0x1 PUSH1 0x1 PUSH1 0x40 SHL SUB DUP2 GT ISZERO PUSH2 0x32F JUMPI PUSH2 0x32F PUSH2 0x142 JUMP JUMPDEST DUP1 PUSH1 0x5 SHL PUSH2 0x33F PUSH1 0x20 DUP3 ADD PUSH2 0x294 JUMP JUMPDEST SWAP2 DUP3 MSTORE PUSH1 0x20 DUP2 DUP5 ADD DUP2 ADD SWAP3 SWAP1 DUP2 ADD SWAP1 DUP9 DUP5 GT ISZERO PUSH2 0x35A JUMPI PUSH0 PUSH0 REVERT JUMPDEST PUSH1 0x20 DUP6 ADD SWAP3 POP JUMPDEST DUP4 DUP4 LT ISZERO PUSH2 0x3FA JUMPI DUP3 MLOAD PUSH1 0x1 PUSH1 0x1 PUSH1 0x40 SHL SUB DUP2 GT ISZERO PUSH2 0x37E JUMPI PUSH0 PUSH0 REVERT JUMPDEST DUP6 ADD PUSH1 0x3F DUP2 ADD DUP11 SGT PUSH2 0x38E JUMPI PUSH0 PUSH0 REVERT JUMPDEST PUSH1 0x20 DUP2 ADD MLOAD PUSH1 0x1 PUSH1 0x1 PUSH1 0x40 SHL SUB DUP2 GT ISZERO PUSH2 0x3AA JUMPI PUSH2 0x3AA PUSH2 0x142 JUMP JUMPDEST PUSH2 0x3BD PUSH1 0x1F DUP3 ADD PUSH1 0x1F NOT AND PUSH1 0x20 ADD PUSH2 0x294 JUMP JUMPDEST DUP2 DUP2 MSTORE PUSH1 0x40 DUP4 DUP4 ADD ADD DUP13 LT ISZERO PUSH2 0x3D1 JUMPI PUSH0 PUSH0 REVERT JUMPDEST DUP2 PUSH1 0x40 DUP5 ADD PUSH1 0x20 DUP4 ADD MCOPY PUSH0 PUSH1 0x20 DUP4 DUP4 ADD ADD MSTORE DUP1 DUP6 MSTORE POP POP POP PUSH1 0x20 DUP3 ADD SWAP2 POP PUSH1 0x20 DUP4 ADD SWAP3 POP PUSH2 0x361 JUMP JUMPDEST DUP1 SWAP6 POP POP POP POP POP POP SWAP3 POP SWAP3 SWAP1 POP JUMP JUMPDEST PUSH2 0x7F5 DUP1 PUSH2 0x416 PUSH0 CODECOPY PUSH0 RETURN INVALID PUSH1 0x80 PUSH1 0x40 MSTORE CALLVALUE DUP1 ISZERO PUSH2 0xF JUMPI PUSH0 PUSH0 REVERT JUMPDEST POP PUSH1 0x4 CALLDATASIZE LT PUSH2 0x60 JUMPI PUSH0 CALLDATALOAD PUSH1 0xE0 SHR DUP1 PUSH4 0x9EEF43E EQ PUSH2 0x64 JUMPI DUP1 PUSH4 0x408E2727 EQ PUSH2 0x9B JUMPI DUP1 PUSH4 0x8D4B44D9 EQ PUSH2 0xA8 JUMPI DUP1 PUSH4 0xDFBF53AE EQ PUSH2 0xE1 JUMPI DUP1 PUSH4 0xEEF2C890 EQ PUSH2 0xF6 JUMPI DUP1 PUSH4 0xFC36E15B EQ PUSH2 0x121 JUMPI JUMPDEST PUSH0 PUSH0 REVERT JUMPDEST PUSH2 0x86 PUSH2 0x72 CALLDATASIZE PUSH1 0x4 PUSH2 0x481 JUMP JUMPDEST PUSH1 0x1 PUSH1 0x20 MSTORE PUSH0 SWAP1 DUP2 MSTORE PUSH1 0x40 SWAP1 KECCAK256 SLOAD PUSH1 0xFF AND DUP2 JUMP JUMPDEST PUSH1 0x40 MLOAD SWAP1 ISZERO ISZERO DUP2 MSTORE PUSH1 0x20 ADD JUMPDEST PUSH1 0x40 MLOAD DUP1 SWAP2 SUB SWAP1 RETURN JUMPDEST PUSH1 0x3 SLOAD PUSH2 0x86 SWAP1 PUSH1 0xFF AND DUP2 JUMP JUMPDEST PUSH2 0xD3 PUSH2 0xB6 CALLDATASIZE PUSH1 0x4 PUSH2 0x4C2 JUMP JUMPDEST DUP1 MLOAD PUSH1 0x20 DUP2 DUP4 ADD DUP2 ADD DUP1 MLOAD PUSH1 0x2 DUP3 MSTORE SWAP3 DUP3 ADD SWAP2 SWAP1 SWAP4 ADD KECCAK256 SWAP2 MSTORE SLOAD DUP2 JUMP JUMPDEST PUSH1 0x40 MLOAD SWAP1 DUP2 MSTORE PUSH1 0x20 ADD PUSH2 0x92 JUMP JUMPDEST PUSH2 0xE9 PUSH2 0x136 JUMP JUMPDEST PUSH1 0x40 MLOAD PUSH2 0x92 SWAP2 SWAP1 PUSH2 0x575 JUMP JUMPDEST PUSH1 0x5 SLOAD PUSH2 0x109 SWAP1 PUSH1 0x1 PUSH1 0x1 PUSH1 0xA0 SHL SUB AND DUP2 JUMP JUMPDEST PUSH1 0x40 MLOAD PUSH1 0x1 PUSH1 0x1 PUSH1 0xA0 SHL SUB SWAP1 SWAP2 AND DUP2 MSTORE PUSH1 0x20 ADD PUSH2 0x92 JUMP JUMPDEST PUSH2 0x134 PUSH2 0x12F CALLDATASIZE PUSH1 0x4 PUSH2 0x4C2 JUMP JUMPDEST PUSH2 0x1C2 JUMP JUMPDEST STOP JUMPDEST PUSH1 0x4 DUP1 SLOAD PUSH2 0x143 SWAP1 PUSH2 0x5AA JUMP JUMPDEST DUP1 PUSH1 0x1F ADD PUSH1 0x20 DUP1 SWAP2 DIV MUL PUSH1 0x20 ADD PUSH1 0x40 MLOAD SWAP1 DUP2 ADD PUSH1 0x40 MSTORE DUP1 SWAP3 SWAP2 SWAP1 DUP2 DUP2 MSTORE PUSH1 0x20 ADD DUP3 DUP1 SLOAD PUSH2 0x16F SWAP1 PUSH2 0x5AA JUMP JUMPDEST DUP1 ISZERO PUSH2 0x1BA JUMPI DUP1 PUSH1 0x1F LT PUSH2 0x191 JUMPI PUSH2 0x100 DUP1 DUP4 SLOAD DIV MUL DUP4 MSTORE SWAP2 PUSH1 0x20 ADD SWAP2 PUSH2 0x1BA JUMP JUMPDEST DUP3 ADD SWAP2 SWAP1 PUSH0 MSTORE PUSH1 0x20 PUSH0 KECCAK256 SWAP1 JUMPDEST DUP2 SLOAD DUP2 MSTORE SWAP1 PUSH1 0x1 ADD SWAP1 PUSH1 0x20 ADD DUP1 DUP4 GT PUSH2 0x19D JUMPI DUP3 SWAP1 SUB PUSH1 0x1F AND DUP3 ADD SWAP2 JUMPDEST POP POP POP POP POP DUP2 JUMP JUMPDEST PUSH1 0x5 SLOAD PUSH1 0x40 MLOAD PUSH4 0x70A08231 PUSH1 0xE0 SHL DUP2 MSTORE CALLER PUSH1 0x4 DUP3 ADD MSTORE PUSH0 SWAP2 PUSH1 0x1 PUSH1 0x1 PUSH1 0xA0 SHL SUB AND SWAP1 PUSH4 0x70A08231 SWAP1 PUSH1 0x24 ADD PUSH1 0x20 PUSH1 0x40 MLOAD DUP1 DUP4 SUB DUP2 DUP7 GAS STATICCALL ISZERO DUP1 ISZERO PUSH2 0x208 JUMPI RETURNDATASIZE PUSH0 PUSH0 RETURNDATACOPY RETURNDATASIZE PUSH0 REVERT JUMPDEST POP POP POP POP PUSH1 0x40 MLOAD RETURNDATASIZE PUSH1 0x1F NOT PUSH1 0x1F DUP3 ADD AND DUP3 ADD DUP1 PUSH1 0x40 MSTORE POP DUP2 ADD SWAP1 PUSH2 0x22C SWAP2 SWAP1 PUSH2 0x5E2 JUMP JUMPDEST GT PUSH2 0x27E JUMPI PUSH1 0x40 MLOAD PUSH3 0x461BCD PUSH1 0xE5 SHL DUP2 MSTORE PUSH1 0x20 PUSH1 0x4 DUP3 ADD MSTORE PUSH1 0x1E PUSH1 0x24 DUP3 ADD MSTORE PUSH32 0x4D7573742068617665204E6174696F6E616C20494420746F20766F7465210000 PUSH1 0x44 DUP3 ADD MSTORE PUSH1 0x64 ADD JUMPDEST PUSH1 0x40 MLOAD DUP1 SWAP2 SUB SWAP1 REVERT JUMPDEST CALLER PUSH0 SWAP1 DUP2 MSTORE PUSH1 0x1 PUSH1 0x20 MSTORE PUSH1 0x40 SWAP1 KECCAK256 SLOAD PUSH1 0xFF AND ISZERO PUSH2 0x2DD JUMPI PUSH1 0x40 MLOAD PUSH3 0x461BCD PUSH1 0xE5 SHL DUP2 MSTORE PUSH1 0x20 PUSH1 0x4 DUP3 ADD MSTORE PUSH1 0x17 PUSH1 0x24 DUP3 ADD MSTORE PUSH32 0x596F75206861766520616C726561647920766F74656421000000000000000000 PUSH1 0x44 DUP3 ADD MSTORE PUSH1 0x64 ADD PUSH2 0x275 JUMP JUMPDEST PUSH1 0x3 SLOAD PUSH1 0xFF AND PUSH2 0x323 JUMPI PUSH1 0x40 MLOAD PUSH3 0x461BCD PUSH1 0xE5 SHL DUP2 MSTORE PUSH1 0x20 PUSH1 0x4 DUP3 ADD MSTORE PUSH1 0x11 PUSH1 0x24 DUP3 ADD MSTORE PUSH17 0x566F74696E672068617320656E64656421 PUSH1 0x78 SHL PUSH1 0x44 DUP3 ADD MSTORE PUSH1 0x64 ADD PUSH2 0x275 JUMP JUMPDEST PUSH0 DUP1 JUMPDEST PUSH0 SLOAD DUP2 LT ISZERO PUSH2 0x3AC JUMPI DUP3 PUSH1 0x40 MLOAD PUSH1 0x20 ADD PUSH2 0x340 SWAP2 SWAP1 PUSH2 0x5F9 JUMP JUMPDEST PUSH1 0x40 MLOAD PUSH1 0x20 DUP2 DUP4 SUB SUB DUP2 MSTORE SWAP1 PUSH1 0x40 MSTORE DUP1 MLOAD SWAP1 PUSH1 0x20 ADD KECCAK256 PUSH0 DUP3 DUP2 SLOAD DUP2 LT PUSH2 0x368 JUMPI PUSH2 0x368 PUSH2 0x60F JUMP JUMPDEST SWAP1 PUSH0 MSTORE PUSH1 0x20 PUSH0 KECCAK256 ADD PUSH1 0x40 MLOAD PUSH1 0x20 ADD PUSH2 0x380 SWAP2 SWAP1 PUSH2 0x623 JUMP JUMPDEST PUSH1 0x40 MLOAD PUSH1 0x20 DUP2 DUP4 SUB SUB DUP2 MSTORE SWAP1 PUSH1 0x40 MSTORE DUP1 MLOAD SWAP1 PUSH1 0x20 ADD KECCAK256 SUB PUSH2 0x3A4 JUMPI PUSH1 0x1 SWAP2 POP PUSH2 0x3AC JUMP JUMPDEST PUSH1 0x1 ADD PUSH2 0x326 JUMP JUMPDEST POP DUP1 PUSH2 0x3EF JUMPI PUSH1 0x40 MLOAD PUSH3 0x461BCD PUSH1 0xE5 SHL DUP2 MSTORE PUSH1 0x20 PUSH1 0x4 DUP3 ADD MSTORE PUSH1 0x12 PUSH1 0x24 DUP3 ADD MSTORE PUSH18 0x496E76616C69642063616E64696461746521 PUSH1 0x70 SHL PUSH1 0x44 DUP3 ADD MSTORE PUSH1 0x64 ADD PUSH2 0x275 JUMP JUMPDEST PUSH1 0x1 PUSH1 0x2 DUP4 PUSH1 0x40 MLOAD PUSH2 0x401 SWAP2 SWAP1 PUSH2 0x5F9 JUMP JUMPDEST SWAP1 DUP2 MSTORE PUSH1 0x20 ADD PUSH1 0x40 MLOAD DUP1 SWAP2 SUB SWAP1 KECCAK256 PUSH0 DUP3 DUP3 SLOAD PUSH2 0x41D SWAP2 SWAP1 PUSH2 0x694 JUMP JUMPDEST SWAP1 SWAP2 SSTORE POP POP CALLER PUSH0 SWAP1 DUP2 MSTORE PUSH1 0x1 PUSH1 0x20 DUP2 SWAP1 MSTORE PUSH1 0x40 SWAP2 DUP3 SWAP1 KECCAK256 DUP1 SLOAD PUSH1 0xFF NOT AND SWAP1 SWAP2 OR SWAP1 SSTORE MLOAD PUSH1 0x5 SWAP1 PUSH1 0x2 SWAP1 PUSH2 0x451 SWAP1 DUP6 SWAP1 PUSH2 0x5F9 JUMP JUMPDEST SWAP1 DUP2 MSTORE PUSH1 0x20 ADD PUSH1 0x40 MLOAD DUP1 SWAP2 SUB SWAP1 KECCAK256 SLOAD LT PUSH2 0x47D JUMPI PUSH1 0x3 DUP1 SLOAD PUSH1 0xFF NOT AND SWAP1 SSTORE PUSH1 0x4 PUSH2 0x47B DUP4 DUP3 PUSH2 0x704 JUMP JUMPDEST POP JUMPDEST POP POP JUMP JUMPDEST PUSH0 PUSH1 0x20 DUP3 DUP5 SUB SLT ISZERO PUSH2 0x491 JUMPI PUSH0 PUSH0 REVERT JUMPDEST DUP2 CALLDATALOAD PUSH1 0x1 PUSH1 0x1 PUSH1 0xA0 SHL SUB DUP2 AND DUP2 EQ PUSH2 0x4A7 JUMPI PUSH0 PUSH0 REVERT JUMPDEST SWAP4 SWAP3 POP POP POP JUMP JUMPDEST PUSH4 0x4E487B71 PUSH1 0xE0 SHL PUSH0 MSTORE PUSH1 0x41 PUSH1 0x4 MSTORE PUSH1 0x24 PUSH0 REVERT JUMPDEST PUSH0 PUSH1 0x20 DUP3 DUP5 SUB SLT ISZERO PUSH2 0x4D2 JUMPI PUSH0 PUSH0 REVERT JUMPDEST DUP2 CALLDATALOAD PUSH8 0xFFFFFFFFFFFFFFFF DUP2 GT ISZERO PUSH2 0x4E8 JUMPI PUSH0 PUSH0 REVERT JUMPDEST DUP3 ADD PUSH1 0x1F DUP2 ADD DUP5 SGT PUSH2 0x4F8 JUMPI PUSH0 PUSH0 REVERT JUMPDEST DUP1 CALLDATALOAD PUSH8 0xFFFFFFFFFFFFFFFF DUP2 GT ISZERO PUSH2 0x512 JUMPI PUSH2 0x512 PUSH2 0x4AE JUMP JUMPDEST PUSH1 0x40 MLOAD PUSH1 0x1F DUP3 ADD PUSH1 0x1F NOT SWAP1 DUP2 AND PUSH1 0x3F ADD AND DUP2 ADD PUSH8 0xFFFFFFFFFFFFFFFF DUP2 GT DUP3 DUP3 LT OR ISZERO PUSH2 0x541 JUMPI PUSH2 0x541 PUSH2 0x4AE JUMP JUMPDEST PUSH1 0x40 MSTORE DUP2 DUP2 MSTORE DUP3 DUP3 ADD PUSH1 0x20 ADD DUP7 LT ISZERO PUSH2 0x558 JUMPI PUSH0 PUSH0 REVERT JUMPDEST DUP2 PUSH1 0x20 DUP5 ADD PUSH1 0x20 DUP4 ADD CALLDATACOPY PUSH0 SWAP2 DUP2 ADD PUSH1 0x20 ADD SWAP2 SWAP1 SWAP2 MSTORE SWAP5 SWAP4 POP POP POP POP JUMP JUMPDEST PUSH1 0x20 DUP2 MSTORE PUSH0 DUP3 MLOAD DUP1 PUSH1 0x20 DUP5 ADD MSTORE DUP1 PUSH1 0x20 DUP6 ADD PUSH1 0x40 DUP6 ADD MCOPY PUSH0 PUSH1 0x40 DUP3 DUP6 ADD ADD MSTORE PUSH1 0x40 PUSH1 0x1F NOT PUSH1 0x1F DUP4 ADD AND DUP5 ADD ADD SWAP2 POP POP SWAP3 SWAP2 POP POP JUMP JUMPDEST PUSH1 0x1 DUP2 DUP2 SHR SWAP1 DUP3 AND DUP1 PUSH2 0x5BE JUMPI PUSH1 0x7F DUP3 AND SWAP2 POP JUMPDEST PUSH1 0x20 DUP3 LT DUP2 SUB PUSH2 0x5DC JUMPI PUSH4 0x4E487B71 PUSH1 0xE0 SHL PUSH0 MSTORE PUSH1 0x22 PUSH1 0x4 MSTORE PUSH1 0x24 PUSH0 REVERT JUMPDEST POP SWAP2 SWAP1 POP JUMP JUMPDEST PUSH0 PUSH1 0x20 DUP3 DUP5 SUB SLT ISZERO PUSH2 0x5F2 JUMPI PUSH0 PUSH0 REVERT JUMPDEST POP MLOAD SWAP2 SWAP1 POP JUMP JUMPDEST PUSH0 DUP3 MLOAD DUP1 PUSH1 0x20 DUP6 ADD DUP5 MCOPY PUSH0 SWAP3 ADD SWAP2 DUP3 MSTORE POP SWAP2 SWAP1 POP JUMP JUMPDEST PUSH4 0x4E487B71 PUSH1 0xE0 SHL PUSH0 MSTORE PUSH1 0x32 PUSH1 0x4 MSTORE PUSH1 0x24 PUSH0 REVERT JUMPDEST PUSH0 PUSH0 DUP4 SLOAD PUSH2 0x630 DUP2 PUSH2 0x5AA JUMP JUMPDEST PUSH1 0x1 DUP3 AND DUP1 ISZERO PUSH2 0x647 JUMPI PUSH1 0x1 DUP2 EQ PUSH2 0x65C JUMPI PUSH2 0x689 JUMP JUMPDEST PUSH1 0xFF NOT DUP4 AND DUP7 MSTORE DUP2 ISZERO ISZERO DUP3 MUL DUP7 ADD SWAP4 POP PUSH2 0x689 JUMP JUMPDEST DUP7 PUSH0 MSTORE PUSH1 0x20 PUSH0 KECCAK256 PUSH0 JUMPDEST DUP4 DUP2 LT ISZERO PUSH2 0x681 JUMPI DUP2 SLOAD DUP9 DUP3 ADD MSTORE PUSH1 0x1 SWAP1 SWAP2 ADD SWAP1 PUSH1 0x20 ADD PUSH2 0x665 JUMP JUMPDEST POP POP DUP2 DUP7 ADD SWAP4 POP JUMPDEST POP SWAP2 SWAP6 SWAP5 POP POP POP POP POP JUMP JUMPDEST DUP1 DUP3 ADD DUP1 DUP3 GT ISZERO PUSH2 0x6B3 JUMPI PUSH4 0x4E487B71 PUSH1 0xE0 SHL PUSH0 MSTORE PUSH1 0x11 PUSH1 0x4 MSTORE PUSH1 0x24 PUSH0 REVERT JUMPDEST SWAP3 SWAP2 POP POP JUMP JUMPDEST PUSH1 0x1F DUP3 GT ISZERO PUSH2 0x47B JUMPI DUP1 PUSH0 MSTORE PUSH1 0x20 PUSH0 KECCAK256 PUSH1 0x1F DUP5 ADD PUSH1 0x5 SHR DUP2 ADD PUSH1 0x20 DUP6 LT ISZERO PUSH2 0x6DE JUMPI POP DUP1 JUMPDEST PUSH1 0x1F DUP5 ADD PUSH1 0x5 SHR DUP3 ADD SWAP2 POP JUMPDEST DUP2 DUP2 LT ISZERO PUSH2 0x6FD JUMPI PUSH0 DUP2 SSTORE PUSH1 0x1 ADD PUSH2 0x6EA JUMP JUMPDEST POP POP POP POP POP JUMP JUMPDEST DUP2 MLOAD PUSH8 0xFFFFFFFFFFFFFFFF DUP2 GT ISZERO PUSH2 0x71E JUMPI PUSH2 0x71E PUSH2 0x4AE JUMP JUMPDEST PUSH2 0x732 DUP2 PUSH2 0x72C DUP5 SLOAD PUSH2 0x5AA JUMP JUMPDEST DUP5 PUSH2 0x6B9 JUMP JUMPDEST PUSH1 0x20 PUSH1 0x1F DUP3 GT PUSH1 0x1 DUP2 EQ PUSH2 0x764 JUMPI PUSH0 DUP4 ISZERO PUSH2 0x74D JUMPI POP DUP5 DUP3 ADD MLOAD JUMPDEST PUSH0 NOT PUSH1 0x3 DUP6 SWAP1 SHL SHR NOT AND PUSH1 0x1 DUP5 SWAP1 SHL OR DUP5 SSTORE PUSH2 0x6FD JUMP JUMPDEST PUSH0 DUP5 DUP2 MSTORE PUSH1 0x20 DUP2 KECCAK256 PUSH1 0x1F NOT DUP6 AND SWAP2 JUMPDEST DUP3 DUP2 LT ISZERO PUSH2 0x793 JUMPI DUP8 DUP6 ADD MLOAD DUP3 SSTORE PUSH1 0x20 SWAP5 DUP6 ADD SWAP5 PUSH1 0x1 SWAP1 SWAP3 ADD SWAP2 ADD PUSH2 0x773 JUMP JUMPDEST POP DUP5 DUP3 LT ISZERO PUSH2 0x7B0 JUMPI DUP7 DUP5 ADD MLOAD PUSH0 NOT PUSH1 0x3 DUP8 SWAP1 SHL PUSH1 0xF8 AND SHR NOT AND DUP2 SSTORE JUMPDEST POP POP POP POP PUSH1 0x1 SWAP1 DUP2 SHL ADD SWAP1 SSTORE POP JUMP INVALID LOG2 PUSH5 0x6970667358 0x22 SLT KECCAK256 0xE9 KECCAK256 DUP12 PUSH7 0x9C02E6DC08E4EF 0x2B CALLDATACOPY DELEGATECALL SWAP6 SHR 0xDC RETURNDATASIZE DUP11 0xC7 SWAP8 DUP2 STATICCALL 0xA7 0xBE 0xB8 0xA8 SHR CHAINID DUP2 MULMOD DUP8 PUSH5 0x736F6C6343 STOP ADDMOD SHL STOP CALLER "
        },
        "methodIdentifiers": {
          "hasVoted(address)": "09eef43e",
          "nationalIdContract()": "eef2c890",
          "vote(string)": "fc36e15b",
          "votesReceived(string)": "8d4b44d9",
          "votingActive()": "408e2727",
          "winner()": "dfbf53ae"
        }
      }
    }
  }
}